:100000000C9456000C9473000C9473000C947300C1
:100010000C9473000C9473000C9473000C94730094
:100020000C9473000C9473000C9473000C94730084
:100030000C9473000C9473000C9473000C94730074
:100040000C9473000C9473000C9473000C94730064
:100050000C9473000C9473000C9473000C94730054
:100060000C9473000C9473000C9473000C94730044
:100070000C9473000C9473000C9473000C94730034
:100080000C9473000C9473000C9473000C94730024
:100090000C9473000C9473000C9473000C94730014
:1000A0000C9473000C9473000C94730011241FBE05
:1000B000CFEFDAE0DEBFCDBF11E0A0E0B1E0E8ECC9
:1000C000F1E002C005900D92A031B107D9F711E01F
:1000D000A0E1B1E001C01D92A031B107E1F70E949B
:1000E000B5000C94E2000C94000080E880BB0895F9
:1000F0008F9A88E893E120E931E0F9013197F1F72F
:100100000197D9F78F9888E893E120E931E0F90168
:100110003197F1F70197D9F708958091C80087FFCB
:10012000FCCF8091CE000895982F8091C80085FF64
:10013000FCCF9093CE000895FC0107C08091C800C9
:1001400085FFFCCF9093CE00319690819923B1F733
:1001500008951092CD0087E68093CC0088E18093CB
:10016000C9008EE08093CA0008951092CD0087E602
:100170008093CC0088E18093C9008EE08093CA0010
:10018000E0E0F1E007C08091C80085FFFCCF9093CC
:10019000CE00319690819923B1F780E880BB20E9A9
:1001A00031E08F9A88E893E1F9013197F1F70197EF
:1001B000D9F78F9888E893E1F9013197F1F7019722
:0801C000D9F7EFCFF894FFCF4F
:1001C800546573742062657374616E64656E0000B3
:00000001FF
