:100000000CC027C026C025C024C023C022C021C0E8
:1000100020C01FC01EC01DC01CC011241FBECFE5C4
:10002000D2E0DEBFCDBF10E0A0E6B0E0E2E8F0E055
:1000300003C0C89531960D92A036B107D1F710E0F4
:10004000A0E6B0E001C01D92A036B107E1F710D0E4
:1000500016C0D6CFDF93CF93CDB7DEB7CF91DF9168
:100060000895DF93CF93CDB7DEB7CF91DF91089599
:10007000DF93CF93CDB7DEB7EDDFF3DFFECFF8949C
:02008000FFCFB0
:00000001FF
