:100000000C9456000C9473000C9473000C947300C1
:100010000C9473000C9473000C9473000C94730094
:100020000C9473000C9473000C9473000C94730084
:100030000C9473000C9473000C9473000C94730074
:100040000C9473000C9473000C9473000C94730064
:100050000C9473000C9473000C9473000C94730054
:100060000C9473000C9473000C9473000C94730044
:100070000C9473000C9473000C9473000C94730034
:100080000C9473000C9473000C9473000C94730024
:100090000C9473000C9473000C9473000C94730014
:1000A0000C9473000C9473000C94730011241FBE05
:1000B000CFEFDAE0DEBFCDBF11E0A0E0B1E0E8E4D1
:1000C000F1E002C005900D92A030B107D9F711E020
:1000D000A0E0B1E001C01D92A030B107E1F70E949D
:1000E0008D000C94A2000C94000080E880BB089561
:1000F0008F9A88E893E120E931E0F9013197F1F72F
:100100000197D9F78F9888E893E120E931E0F90168
:100110003197F1F70197D9F7089580E880BB20E97E
:1001200031E08F9A88E893E1F9013197F1F701976F
:10013000D9F78F9888E893E1F9013197F1F70197A2
:08014000D9F7EFCFF894FFCFCF
:00000001FF
