:100000000C9456000C9473000C9473000C947300C1
:100010000C9473000C9473000C9473000C94730094
:100020000C9473000C9473000C9473000C94730084
:100030000C9473000C9473000C9473000C94730074
:100040000C9473000C9473000C9473000C94730064
:100050000C9473000C9473000C9473000C94730054
:100060000C9473000C9473000C9473000C94730044
:100070000C9473000C9473000C9473000C94730034
:100080000C9473000C9473000C9473000C94730024
:100090000C9473000C9473000C9473000C94730014
:1000A0000C9473000C9473000C94730011241FBE05
:1000B000CFEFDAE0DEBFCDBF11E0A0E0B1E0EEEFC0
:1000C000F6E002C005900D92A034B107D9F711E017
:1000D000A0E4B1E001C01D92A634B107E1F70E948F
:1000E0008D000C947D030C94000000D080E091E022
:1000F000EDB7FEB7928381830E94B4000F900F90FA
:10010000089500D080E291E0EDB7FEB7928381833D
:100110000E94B4000F900F9008950F931F93CF93F8
:10012000DF9300D080E291E0EDB7FEB79283818348
:100130000E94B400C0E0D0E00F900F9000E011E00A
:1001400000D0EDB7FEB7128301830E94B400219660
:100150000F900F90CA30D10599F780E090E0DF91C1
:10016000CF911F910F910895A0E0B0E0EAEBF0E08D
:100170000C945603FE013596619171918091420174
:1001800090914301AF010E94C9002096E2E00C94D7
:100190007203ABE0B0E0EFECF0E00C9446033C01FE
:1001A0002B015A01FC0117821682838181FD03C055
:1001B0006FEF7FEFC6C19AE0892E1E010894211CC3
:1001C000311CF3012381F20123FD859123FF8191ED
:1001D0002F01882309F4B2C1853239F423FD8591BA
:1001E00023FF81912F01853229F490E0B3010E9411
:1001F000BC02E7CF982FFF24EE249924FFE1FF15DE
:10020000D0F09B3269F09C3228F4903259F093324E
:1002100091F40EC09D3249F0903369F441E024C05E
:1002200052E0F52A84E0F82A28C098E0F92A25C08F
:10023000E0E1FE2A22C0F7FC29C0892F80538A30D2
:1002400070F4F6FE05C0989C902C1124980E15C0F1
:10025000E89CE02C1124E80EF0E2FF2A0EC09E324A
:1002600029F4F6FC6BC140E4F42A07C09C3619F46B
:1002700050E8F52A02C0983649F4F20123FD959121
:1002800023FF91912F01992309F0B8CF892F85542D
:10029000833018F08052833038F444E050E0A40EEC
:1002A000B51E5FE359830FC0933631F0933779F071
:1002B000933509F056C020C0F5018081898342E062
:1002C00050E0A40EB51E610101E010E012C0F5017E
:1002D000C080D180F6FC03C06FEF7FEF02C0692DB4
:1002E00070E042E050E0A40EB51EC6010E94B102CB
:1002F0008C015FE7F52214C0F501C080D180F6FCC7
:1003000003C06FEF7FEF02C0692D70E042E050E064
:10031000A40EB51EC6010E94A6028C0150E8F52A63
:10032000F3FE07C01AC080E290E0B3010E94BC0255
:10033000EA948E2D90E008171907A8F30EC0F60175
:10034000F7FC8591F7FE81916F0190E0B3010E9467
:10035000BC02E110EA94015010400115110579F733
:10036000EAC0943611F0993669F5F7FE08C0F50138
:10037000208131814281538184E090E00AC0F501FF
:10038000808191819C01442737FD4095542F82E064
:1003900090E0A80EB91E9FE6F92257FF09C05095BC
:1003A0004095309521953F4F4F4F5F4FE0E8FE2A33
:1003B000CA01B901A1012AE030E00E94E802D82E6A
:1003C000D21840C0953729F41F2D1F7E2AE030E057
:1003D0001DC01F2D197F9F3661F0903720F498358E
:1003E00009F0ACC00FC0903739F0983709F0A6C0BB
:1003F00004C028E030E00AC0106114FD146020E160
:1004000030E004C014FD166020E132E017FF08C0A0
:10041000F501608171818281938144E050E008C0E0
:10042000F50180819181BC0180E090E042E050E0E4
:10043000A40EB51EA1010E94E802D82ED2188FE7A3
:10044000F82EF122F6FE0BC05EEFF522D91438F437
:10045000F4FE07C0F2FC05C08FEEF82202C01D2D8D
:1004600001C0192DF4FE0DC0FE01ED0DF11D8081BE
:10047000803319F499EEF92208C01F5FF2FE05C01F
:1004800003C08F2D867809F01F5F0F2DF3FC14C079
:10049000F0FE0FC01E1510F09D2C0BC09D2C9E0C65
:1004A000911A1E2D06C080E290E0B3010E94BC02AA
:1004B0001F5F1E15C0F304C01E1510F4E11A01C021
:1004C000EE2404FF0FC080E390E0B3010E94BC0261
:1004D00002FF1DC001FD03C088E790E00EC088E563
:1004E00090E00BC0802F867891F001FF02C08BE274
:1004F00001C080E2F7FC8DE290E0B3010E94BC02F3
:1005000006C080E390E0B3010E94BC029A94D91423
:10051000C0F3DA94F101ED0DF11D808190E0B3019B
:100520000E94BC02DD20A9F706C080E290E0B30182
:100530000E94BC02EA94EE20C1F743CEF30166812B
:100540007781CB012B96E2E10C946203FC010590CC
:10055000615070400110D8F7809590958E0F9F1FC5
:100560000895FC016150704001900110D8F780950A
:1005700090958E0F9F1F08950F931F93CF93DF9336
:100580008C01EB018B8181FF1BC082FF0DC02E818E
:100590003F818C819D812817390764F4E881F981B6
:1005A0000193F983E88306C0E885F985802F0995D2
:1005B000892B31F48E819F8101969F838E8302C0A7
:1005C0000FEF1FEFC801DF91CF911F910F91089599
:1005D000FA01AA27283051F1203181F1E8946F9374
:1005E0006E7F6E5F7F4F8F4F9F4FAF4FB1E03ED01A
:1005F000B4E03CD0670F781F891F9A1FA11D680FB8
:10060000791F8A1F911DA11D6A0F711D811D911DEA
:10061000A11D20D009F468943F912AE0269F11245F
:100620003019305D3193DEF6CF010895462F4770C3
:10063000405D4193B3E00FD0C9F7F6CF462F4F701E
:10064000405D4A3318F0495D31FD4052419302D07C
:10065000A9F7EACFB4E0A695979587957795679522
:10066000BA95C9F700976105710508959B01AC0122
:100670000A2E06945795479537952795BA95C9F749
:10068000620F731F841F951FA01D08952F923F9224
:100690004F925F926F927F928F929F92AF92BF9292
:1006A000CF92DF92EF92FF920F931F93CF93DF933E
:1006B000CDB7DEB7CA1BDB0B0FB6F894DEBF0FBE9B
:1006C000CDBF09942A88398848885F846E847D84E8
:1006D0008C849B84AA84B984C884DF80EE80FD80EA
:1006E0000C811B81AA81B981CE0FD11D0FB6F89460
:0E06F000DEBF0FBECDBFED010895F894FFCF21
:1006FE0054657374206572666F6C677265696368A2
:10070E002062657374616E64656E2132203D29002E
:10071E0054657374206572666F6C67726569636881
:10072E002062657374616E64656E21203D29000040
:00000001FF
