:100000000CC027C026C025C024C023C022C021C0E8
:1000100020C01FC01EC01DC01CC011241FBECFE5C4
:10002000D2E0DEBFCDBF10E0A0E6B0E0E0EDF6E04C
:1000300003C0C89531960D92AE3AB107D1F710E0E2
:10004000AEEAB0E001C01D92A43BB107E1F726D0B3
:100050003DC3D6CFDF93CF93CDB7DEB700D0EDB79A
:10006000FEB731968EE690E0918380831ED00F908C
:100070000F90CF91DF910895DF93CF93CDB7DEB787
:1000800000D0EDB7FEB731968DE890E09183808384
:100090000CD00F900F90CF91DF910895DF93CF9305
:1000A000CDB7DEB7D7DFE8DFFECFA0E0B0E0EAE50E
:1000B000F0E0E4C2EC2FFD2F3596619171918091B3
:1000C000B0009091B1004E2F5F2F03D02096E2E058
:1000D000F1C2ABE0B0E0EEE6F0E0C0C2882E992EAF
:1000E000462E572EA42EB52EE82FF92F17821682F2
:1000F000838181FD03C06FEF7FEFEDC12C2E3D2E7C
:100100000894211C311C9FE3692EE82DF92D3381C1
:10011000E42DF52D33FDC89533FF00803196802DF9
:100120004E2E5F2E882309F4D2C1853251F433FD5F
:10013000C89533FF00803196802D4E2E5F2E85327C
:1001400029F490E0682D792DE4D1DFCF982FFF249A
:10015000EE247724FFE1FF15D0F09B3269F09C324A
:1001600028F4903259F0933291F40EC09D3249F048
:10017000903369F441E02AC052E0F52A84E0F82A7D
:100180002EC098E0F92A2BC0E0E1FE2A28C0F7FC37
:1001900033C0292F20532A30A0F4F6FE08C0872D43
:1001A00090E06AE070E048D2782E720E18C08E2D72
:1001B00090E06AE070E040D2E82EE20EF0E2FF2A22
:1001C0000EC09E3229F4F6FC82C140E4F42A07C036
:1001D0009C3619F450E8F52A02C0983669F4E42DEB
:1001E000F52D33FDC89533FF00803196902D4E2EAE
:1001F0005F2E992309F0AECF892F8554833018F0F4
:100200008052833030F444E050E0A40EB51E698281
:1002100010C0933631F0933789F0933509F060C000
:1002200024C0EA2DFB2D8081898342E050E0A40E9A
:10023000B51EC22CD32C01E010E014C0EA2DFB2D1A
:10024000C080D180F6FC03C06FEF7FEF02C0672D46
:1002500070E042E050E0A40EB51E8C2D9D2D4DD1D6
:10026000082F192F5FE7F52216C0EA2DFB2DC0805D
:10027000D180F6FC03C06FEF7FEF02C0672D70E006
:1002800042E050E0A40EB51E8C2D9D2D29D1082FE3
:10029000192F50E8F52AF3FE07C01EC080E290E057
:1002A000682D792D36D1EA948E2D90E00817190724
:1002B000A8F312C0EC2DFD2DF7FCC895F7FE0080C9
:1002C0003196802DCE2EDF2E90E0682D792D21D114
:1002D000E110EA94015010400115110559F7F4C0DE
:1002E000943611F0993691F5F7FE09C0EA2DFB2DF1
:1002F000208131814281538184E090E00CC0EA2D5D
:10030000FB2D80819181282F392F442737FD40957F
:10031000542F82E090E0A80EB91E9FE6F92257FF05
:1003200009C050954095309521953F4F4F4F5F4FF5
:10033000E0E8FE2A952F842F732F622F422D532D34
:100340002AE030E015D1D82ED21843C0953729F4D1
:100350001F2D1F7E2AE030E01DC01F2D197F9F3604
:1003600061F0903720F4983509F0B1C00FC0903794
:1003700039F0983709F0ABC004C028E030E00AC07B
:10038000106114FD146020E130E004C014FD16601B
:1003900020E132E017FF09C0EA2DFB2D6081718159
:1003A0008281938144E050E00AC0EA2DFB2D8081D8
:1003B0009181682F792F80E090E042E050E0A40E18
:1003C000B51E422D532DD4D0D82ED2188FE7F82E3B
:1003D000F122F6FE0BC05EEFF522D71438F4F4FEDE
:1003E00007C0F2FC05C08FEEF82202C01D2D01C02F
:1003F000172DF4FE0EC0EC2FFD2FED0DF11D8081A9
:10040000803319F499EEF92208C01F5FF2FE05C08F
:1004100003C08F2D867809F01F5F0F2DF3FC14C0E9
:10042000F0FE0FC01E1510F07D2C0BC07D2C7E0C35
:10043000711A1E2D06C080E290E0682D792D69D0DA
:100440001F5F1E15C0F304C01E1510F4E11A01C091
:10045000EE2404FF0FC080E390E0682D792D59D081
:1004600002FF1DC001FD03C088E790E00EC088E5D3
:1004700090E00BC0802F867891F001FF02C08BE2E4
:1004800001C080E2F7FC8DE290E0682D792D41D02B
:1004900006C080E390E0682D792D3BD07A94D71484
:1004A000C0F3DA94E22DF32DED0DF11D808190E083
:1004B000682D792D2ED0DD20A1F706C080E290E0D6
:1004C000682D792D26D0EA94EE20C1F71ECEE82DB6
:1004D000F92D66817781862F972F2B96E2E1DAC07E
:1004E000E82FF92FC8953196615070400110D0F770
:1004F000809590958E0F9F1F0895E82FF92F6150DA
:10050000704001900110D8F7809590958E0F9F1F35
:1005100008950F931F93CF93DF93082F192FC62FA2
:10052000D72F8B8181FF1BC082FF0DC02E813F81A1
:100530008C819D812817390764F4E881F981019342
:10054000F983E88306C0E885F985802F0995892B12
:1005500031F48E819F8101969F838E8302C00FEFBD
:100560001FEF802F912FDF91CF911F910F91089551
:10057000E42FF52FAA27283069F1203199F1E8946A
:100580006F936E7F6E5F7F4F8F4F9F4FAF4FB1E086
:1005900041D0B4E03FD0670F781F891F9A1FA11D7B
:1005A000680F791F8A1F911DA11D6A0F711D811D82
:1005B000911DA11D23D009F468943F91062E000CD3
:1005C0003019000C000C3019305D3193CEF68E2FAF
:1005D0009F2F0895462F4770405D4193B3E00FD0A1
:1005E000C9F7F5CF462F4F70405D4A3318F0495D8B
:1005F00031FD4052419302D0A9F7E9CFB4E0A6956E
:100600009795879577956795BA95C9F7009761058E
:1006100071050895262F372F482F592F0A2E06943B
:100620005795479537952795BA95C9F7620F731F68
:10063000841F951FA01D08955527002480FF02C028
:10064000060E571F660F771F6115710521F09695ED
:100650008795009799F7952F802D08952F923F92B7
:100660004F925F926F927F928F929F92AF92BF92C2
:10067000CF92DF92EF92FF920F931F93CF93DF936E
:10068000CDB7DEB7CA1BDB0B0FB6F894DEBF0FBECB
:10069000CDBF09942A88398848885F846E847D8418
:1006A0008C849B84AA84B984C884DF80EE80FD801A
:1006B0000C811B81AA81B981CE0FD11D0FB6F89490
:1006C000DEBF0FBECDBFCA2FDB2F0895F894FFCF3A
:1006D0000A0B0C0D12130E0F101112131415546582
:1006E0007374206572666F6C6772656963682062F7
:1006F000657374616E64656E21203D2900546573D5
:1007000074206572666F6C677265696368206265E4
:0E0710007374616E64656E2132203D29000015
:00000001FF
